:020000020000FC
:040000000C94340028
:040034000C946B00BD
:100068000FEF04B900E00AB9289A00E00093800075
:100078000093810001E000936F0000E0789419B1CB
:10008800612F0E94720019B1611711F00C9443009E
:10009800103041F0113061F0123079F0133091F0E6
:1000A8000C94430000E000938100289A0C944300CC
:1000B80003E0409381000C94430044E040938100A6
:1000C8000C94430045E0409381000C944300289928
:1000D8000C947000289A18952898189541E030E5F6
:1000E8002AEF00002A95E9F73A95D1F74A95B9F72A
:0200F800089569
:00000001FF
