:020000020000FC
:040000000C94340028
:1000680000E00AB90FEF04B908E10093C10006E007
:100078000093C20000E00093C50008E60093C400A6
:1000880000E00E9496002591203021F00E94830014
:100098000C9447001091C00017FF0C944E0010916B
:1000A800C600113341F0123379F01333B1F0143331
:1000B800E9F00C944E0028990C946500289A0C9449
:1000C8004E0028980C944E0029990C946E00299A99
:1000D8000C944E0029980C944E002A990C947700A1
:1000E8002A9A0C944E002A980C944E002B990C9442
:1000F80080002B9A0C944E002B980C944E00109173
:10010800C00015FF0C9483002093C600089548ECA6
:100118003AEF2AEF00002A95E9F73A95D1F74A9580
:10012800B9F70895E2E3F1E00895484F4C41204CB7
:1001380041424F204445204D49434F532050554C90
:100148005345203132334F34205041524120434FE0
:100158004E54524F4C4152204C4F53204C4544531F
:02016800000095
:00000001FF
