:020000020000FC
:040000000C94340028
:1000680000E00AB90FEF04B908E10093C10006E007
:100078000093C20000E00093C50008E60093C400A6
:1000880000E00E948B002591203021F00E9483001F
:100098000C9447001091C00017FF0C944E0010916B
:1000A800C600113341F0123379F01333B1F0143331
:1000B800E9F00C944E0028990C946500289A0C9449
:1000C8004E0028980C944E0029990C946E00299A99
:1000D8000C944E0029980C944E002A990C947700A1
:1000E8002A9A0C944E002A980C944E002B990C9442
:1000F80080002B9A0C944E002B980C944E00109173
:10010800C00015FF0C9483002093C6000895ECE10D
:10011800F1E008952A2A2A20486F6C61204C616218
:100128006F206465204D6963726F202A2A2A0A0DA0
:100138004573637269626120312C20322C20332090
:100148006F2034207061726120636F6E74726F6CFF
:0E0158006172206C6F73204C4544730A0D00D9
:00000001FF
