:020000020000FC
:040000000C94340028
:040034000C946500C3
:100068000FEF04B900E00AB9289A00E00093800075
:100078000093810001E000936F0000E0789419B1CB
:10008800103051F0113071F0123089F01330A1F0B6
:100098000E946C000C94430000E000938100289AB1
:1000A8000C94430003E0409381000C94430044E027
:1000B800409381000C94430045E0409381000C94E8
:1000C800430028990C946A00289A1895289818953E
:1000D80041E030E52AEF00002A95E9F73A95D1F793
:0600E8004A95B9F70895E6
:00000001FF
