:020000020000FC
:040000000C94340028
:040048000C945200C2
:1000680000E00AB90FEF04B908E90093C10006E0FF
:100078000093C20000E00093C50008E60093C400A6
:1000880000E00E94810078942591203021F00E94A0
:1000980079000C94480000000C944F001091C600A1
:1000A800113339F0123361F0133389F01433B1F09E
:1000B800189528990C946200289A189528981895EC
:1000C80029990C946900299A1895299818952A99BC
:1000D8000C9470002A9A18952A9818952B990C94C4
:1000E80077002B9A18952B9818951091C00015FF3A
:1000F8000C9479002093C6000895E8E0F1E0089593
:100108002A2A2A20486F6C61204C61626F2064653E
:10011800204D6963726F202A2A2A0A0D457363727B
:1001280069626120312C20322C2033206F2034204A
:100138007061726120636F6E74726F6C6172206C93
:0A0148006F73204C4544730A0D004C
:00000001FF
