:020000020000FC
:040000000C94340028
:1000680000E00AB90FEF04B908E10093C10006E007
:100078000093C20000E00093C50008E60093C400A6
:1000880000E00E948F002591203021F00E94870017
:100098000C9447001091C00017FF0C944E0010916B
:1000A800C600113341F0123381F01333C1F0143319
:1000B80001F10C944E0028990C946500289A0C9430
:1000C8006600289800000C944E0029990C946F0043
:1000D800299A0C947000299800000C944E002A99D3
:1000E8000C9479002A9A0C947A002A9800000C94AF
:1000F8004E002B990C9483002B9A0C9484002B9817
:1001080000000C944E001091C00015FF0C9487005D
:100118002093C6000895E4E2F1E008952A2A2A20EF
:10012800486F6C61204C61626F206465204D696383
:10013800726F202A2A2A0A0D457363726962612048
:10014800312C20322C2033206F20342070617261D2
:1001580020636F6E74726F6C6172206C6F73204CC9
:060168004544730A0D007E
:00000001FF
